{
  "_format": "hh-sol-artifact-1",
  "contractName": "AshToken",
  "sourceName": "contracts/AshToken.sol",
  "abi": [
    {
      "inputs": [
        {
          "internalType": "uint256",
          "name": "initialSupply",
          "type": "uint256"
        }
      ],
      "stateMutability": "nonpayable",
      "type": "constructor"
    },
    {
      "anonymous": false,
      "inputs": [
        {
          "indexed": true,
          "internalType": "address",
          "name": "owner",
          "type": "address"
        },
        {
          "indexed": true,
          "internalType": "address",
          "name": "spender",
          "type": "address"
        },
        {
          "indexed": false,
          "internalType": "uint256",
          "name": "value",
          "type": "uint256"
        }
      ],
      "name": "Approval",
      "type": "event"
    },
    {
      "anonymous": false,
      "inputs": [
        {
          "indexed": true,
          "internalType": "address",
          "name": "previousOwner",
          "type": "address"
        },
        {
          "indexed": true,
          "internalType": "address",
          "name": "newOwner",
          "type": "address"
        }
      ],
      "name": "OwnershipTransferred",
      "type": "event"
    },
    {
      "anonymous": false,
      "inputs": [
        {
          "indexed": true,
          "internalType": "address",
          "name": "from",
          "type": "address"
        },
        {
          "indexed": true,
          "internalType": "address",
          "name": "to",
          "type": "address"
        },
        {
          "indexed": false,
          "internalType": "uint256",
          "name": "value",
          "type": "uint256"
        }
      ],
      "name": "Transfer",
      "type": "event"
    },
    {
      "inputs": [
        {
          "internalType": "address",
          "name": "owner",
          "type": "address"
        },
        {
          "internalType": "address",
          "name": "spender",
          "type": "address"
        }
      ],
      "name": "allowance",
      "outputs": [
        {
          "internalType": "uint256",
          "name": "",
          "type": "uint256"
        }
      ],
      "stateMutability": "view",
      "type": "function"
    },
    {
      "inputs": [
        {
          "internalType": "address",
          "name": "spender",
          "type": "address"
        },
        {
          "internalType": "uint256",
          "name": "amount",
          "type": "uint256"
        }
      ],
      "name": "approve",
      "outputs": [
        {
          "internalType": "bool",
          "name": "",
          "type": "bool"
        }
      ],
      "stateMutability": "nonpayable",
      "type": "function"
    },
    {
      "inputs": [
        {
          "internalType": "address",
          "name": "account",
          "type": "address"
        }
      ],
      "name": "balanceOf",
      "outputs": [
        {
          "internalType": "uint256",
          "name": "",
          "type": "uint256"
        }
      ],
      "stateMutability": "view",
      "type": "function"
    },
    {
      "inputs": [
        {
          "internalType": "address",
          "name": "account",
          "type": "address"
        },
        {
          "internalType": "uint256",
          "name": "amount",
          "type": "uint256"
        }
      ],
      "name": "burn",
      "outputs": [
        {
          "internalType": "bool",
          "name": "",
          "type": "bool"
        }
      ],
      "stateMutability": "nonpayable",
      "type": "function"
    },
    {
      "inputs": [],
      "name": "buy",
      "outputs": [
        {
          "internalType": "bool",
          "name": "",
          "type": "bool"
        }
      ],
      "stateMutability": "payable",
      "type": "function"
    },
    {
      "inputs": [],
      "name": "decimals",
      "outputs": [
        {
          "internalType": "uint8",
          "name": "",
          "type": "uint8"
        }
      ],
      "stateMutability": "view",
      "type": "function"
    },
    {
      "inputs": [
        {
          "internalType": "address",
          "name": "spender",
          "type": "address"
        },
        {
          "internalType": "uint256",
          "name": "subtractedValue",
          "type": "uint256"
        }
      ],
      "name": "decreaseAllowance",
      "outputs": [
        {
          "internalType": "bool",
          "name": "",
          "type": "bool"
        }
      ],
      "stateMutability": "nonpayable",
      "type": "function"
    },
    {
      "inputs": [
        {
          "internalType": "address",
          "name": "spender",
          "type": "address"
        },
        {
          "internalType": "uint256",
          "name": "addedValue",
          "type": "uint256"
        }
      ],
      "name": "increaseAllowance",
      "outputs": [
        {
          "internalType": "bool",
          "name": "",
          "type": "bool"
        }
      ],
      "stateMutability": "nonpayable",
      "type": "function"
    },
    {
      "inputs": [
        {
          "internalType": "address",
          "name": "account",
          "type": "address"
        },
        {
          "internalType": "uint256",
          "name": "amount",
          "type": "uint256"
        }
      ],
      "name": "mint",
      "outputs": [
        {
          "internalType": "bool",
          "name": "",
          "type": "bool"
        }
      ],
      "stateMutability": "nonpayable",
      "type": "function"
    },
    {
      "inputs": [],
      "name": "name",
      "outputs": [
        {
          "internalType": "string",
          "name": "",
          "type": "string"
        }
      ],
      "stateMutability": "view",
      "type": "function"
    },
    {
      "inputs": [],
      "name": "owner",
      "outputs": [
        {
          "internalType": "address",
          "name": "",
          "type": "address"
        }
      ],
      "stateMutability": "view",
      "type": "function"
    },
    {
      "inputs": [],
      "name": "renounceOwnership",
      "outputs": [],
      "stateMutability": "nonpayable",
      "type": "function"
    },
    {
      "inputs": [],
      "name": "symbol",
      "outputs": [
        {
          "internalType": "string",
          "name": "",
          "type": "string"
        }
      ],
      "stateMutability": "view",
      "type": "function"
    },
    {
      "inputs": [],
      "name": "totalSupply",
      "outputs": [
        {
          "internalType": "uint256",
          "name": "",
          "type": "uint256"
        }
      ],
      "stateMutability": "view",
      "type": "function"
    },
    {
      "inputs": [
        {
          "internalType": "address",
          "name": "to",
          "type": "address"
        },
        {
          "internalType": "uint256",
          "name": "value",
          "type": "uint256"
        }
      ],
      "name": "transfer",
      "outputs": [
        {
          "internalType": "bool",
          "name": "",
          "type": "bool"
        }
      ],
      "stateMutability": "nonpayable",
      "type": "function"
    },
    {
      "inputs": [
        {
          "internalType": "address",
          "name": "from",
          "type": "address"
        },
        {
          "internalType": "address",
          "name": "to",
          "type": "address"
        },
        {
          "internalType": "uint256",
          "name": "amount",
          "type": "uint256"
        }
      ],
      "name": "transferFrom",
      "outputs": [
        {
          "internalType": "bool",
          "name": "",
          "type": "bool"
        }
      ],
      "stateMutability": "nonpayable",
      "type": "function"
    },
    {
      "inputs": [
        {
          "internalType": "address",
          "name": "newOwner",
          "type": "address"
        }
      ],
      "name": "transferOwnership",
      "outputs": [],
      "stateMutability": "nonpayable",
      "type": "function"
    },
    {
      "inputs": [
        {
          "internalType": "uint256",
          "name": "amount",
          "type": "uint256"
        }
      ],
      "name": "withdraw",
      "outputs": [
        {
          "internalType": "bool",
          "name": "",
          "type": "bool"
        }
      ],
      "stateMutability": "nonpayable",
      "type": "function"
    }
  ],
  "bytecode": "0x60806040523480156200001157600080fd5b50604051620030553803806200305583398181016040528101906200003791906200051c565b6040518060400160405280600881526020017f417368546f6b656e0000000000000000000000000000000000000000000000008152506040518060400160405280600381526020017f41534800000000000000000000000000000000000000000000000000000000008152508160039081620000b49190620007be565b508060049081620000c69190620007be565b505050620000e9620000dd6200013d60201b60201c565b6200014560201b60201c565b6200012533620000fe6200020b60201b60201c565b600a6200010c919062000a35565b8362000119919062000a86565b6200021460201b60201c565b62000136336200038160201b60201c565b5062000cc7565b600033905090565b6000600560009054906101000a900473ffffffffffffffffffffffffffffffffffffffff16905081600560006101000a81548173ffffffffffffffffffffffffffffffffffffffff021916908373ffffffffffffffffffffffffffffffffffffffff1602179055508173ffffffffffffffffffffffffffffffffffffffff168173ffffffffffffffffffffffffffffffffffffffff167f8be0079c531659141344cd1fd0a4f28419497f9722a3daafe3b4186f6b6457e060405160405180910390a35050565b60006012905090565b600073ffffffffffffffffffffffffffffffffffffffff168273ffffffffffffffffffffffffffffffffffffffff160362000286576040517f08c379a00000000000000000000000000000000000000000000000000000000081526004016200027d9062000b32565b60405180910390fd5b6200029a600083836200041760201b60201c565b8060026000828254620002ae919062000b54565b92505081905550806000808473ffffffffffffffffffffffffffffffffffffffff1673ffffffffffffffffffffffffffffffffffffffff168152602001908152602001600020600082825401925050819055508173ffffffffffffffffffffffffffffffffffffffff16600073ffffffffffffffffffffffffffffffffffffffff167fddf252ad1be2c89b69c2b068fc378daa952ba7f163c4a11628f55a4df523b3ef8360405162000361919062000ba0565b60405180910390a36200037d600083836200041c60201b60201c565b5050565b620003916200042160201b60201c565b600073ffffffffffffffffffffffffffffffffffffffff168173ffffffffffffffffffffffffffffffffffffffff160362000403576040517f08c379a0000000000000000000000000000000000000000000000000000000008152600401620003fa9062000c33565b60405180910390fd5b62000414816200014560201b60201c565b50565b505050565b505050565b620004316200013d60201b60201c565b73ffffffffffffffffffffffffffffffffffffffff1662000457620004b260201b60201c565b73ffffffffffffffffffffffffffffffffffffffff1614620004b0576040517f08c379a0000000000000000000000000000000000000000000000000000000008152600401620004a79062000ca5565b60405180910390fd5b565b6000600560009054906101000a900473ffffffffffffffffffffffffffffffffffffffff16905090565b600080fd5b6000819050919050565b620004f681620004e1565b81146200050257600080fd5b50565b6000815190506200051681620004eb565b92915050565b600060208284031215620005355762000534620004dc565b5b6000620005458482850162000505565b91505092915050565b600081519050919050565b7f4e487b7100000000000000000000000000000000000000000000000000000000600052604160045260246000fd5b7f4e487b7100000000000000000000000000000000000000000000000000000000600052602260045260246000fd5b60006002820490506001821680620005d057607f821691505b602082108103620005e657620005e562000588565b5b50919050565b60008190508160005260206000209050919050565b60006020601f8301049050919050565b600082821b905092915050565b600060088302620006507fffffffffffffffffffffffffffffffffffffffffffffffffffffffffffffffff8262000611565b6200065c868362000611565b95508019841693508086168417925050509392505050565b6000819050919050565b60006200069f620006996200069384620004e1565b62000674565b620004e1565b9050919050565b6000819050919050565b620006bb836200067e565b620006d3620006ca82620006a6565b8484546200061e565b825550505050565b600090565b620006ea620006db565b620006f7818484620006b0565b505050565b5b818110156200071f5762000713600082620006e0565b600181019050620006fd565b5050565b601f8211156200076e576200073881620005ec565b620007438462000601565b8101602085101562000753578190505b6200076b620007628562000601565b830182620006fc565b50505b505050565b600082821c905092915050565b6000620007936000198460080262000773565b1980831691505092915050565b6000620007ae838362000780565b9150826002028217905092915050565b620007c9826200054e565b67ffffffffffffffff811115620007e557620007e462000559565b5b620007f18254620005b7565b620007fe82828562000723565b600060209050601f83116001811462000836576000841562000821578287015190505b6200082d8582620007a0565b8655506200089d565b601f1984166200084686620005ec565b60005b82811015620008705784890151825560018201915060208501945060208101905062000849565b868310156200089057848901516200088c601f89168262000780565b8355505b6001600288020188555050505b505050505050565b7f4e487b7100000000000000000000000000000000000000000000000000000000600052601160045260246000fd5b60008160011c9050919050565b6000808291508390505b600185111562000933578086048111156200090b576200090a620008a5565b5b60018516156200091b5780820291505b80810290506200092b85620008d4565b9450620008eb565b94509492505050565b6000826200094e576001905062000a21565b816200095e576000905062000a21565b81600181146200097757600281146200098257620009b8565b600191505062000a21565b60ff841115620009975762000996620008a5565b5b8360020a915084821115620009b157620009b0620008a5565b5b5062000a21565b5060208310610133831016604e8410600b8410161715620009f25782820a905083811115620009ec57620009eb620008a5565b5b62000a21565b62000a018484846001620008e1565b9250905081840481111562000a1b5762000a1a620008a5565b5b81810290505b9392505050565b600060ff82169050919050565b600062000a4282620004e1565b915062000a4f8362000a28565b925062000a7e7fffffffffffffffffffffffffffffffffffffffffffffffffffffffffffffffff84846200093c565b905092915050565b600062000a9382620004e1565b915062000aa083620004e1565b925082820262000ab081620004e1565b9150828204841483151762000aca5762000ac9620008a5565b5b5092915050565b600082825260208201905092915050565b7f45524332303a206d696e7420746f20746865207a65726f206164647265737300600082015250565b600062000b1a601f8362000ad1565b915062000b278262000ae2565b602082019050919050565b6000602082019050818103600083015262000b4d8162000b0b565b9050919050565b600062000b6182620004e1565b915062000b6e83620004e1565b925082820190508082111562000b895762000b88620008a5565b5b92915050565b62000b9a81620004e1565b82525050565b600060208201905062000bb7600083018462000b8f565b92915050565b7f4f776e61626c653a206e6577206f776e657220697320746865207a65726f206160008201527f6464726573730000000000000000000000000000000000000000000000000000602082015250565b600062000c1b60268362000ad1565b915062000c288262000bbd565b604082019050919050565b6000602082019050818103600083015262000c4e8162000c0c565b9050919050565b7f4f776e61626c653a2063616c6c6572206973206e6f7420746865206f776e6572600082015250565b600062000c8d60208362000ad1565b915062000c9a8262000c55565b602082019050919050565b6000602082019050818103600083015262000cc08162000c7e565b9050919050565b61237e8062000cd76000396000f3fe6080604052600436106101095760003560e01c8063715018a611610095578063a457c2d711610064578063a457c2d7146103a7578063a6f2ae3a146103e4578063a9059cbb14610402578063dd62ed3e1461043f578063f2fde38b1461047c57610109565b8063715018a6146102fd5780638da5cb5b1461031457806395d89b411461033f5780639dc29fac1461036a57610109565b80632e1a7d4d116100dc5780632e1a7d4d146101de578063313ce5671461021b578063395093511461024657806340c10f191461028357806370a08231146102c057610109565b806306fdde031461010e578063095ea7b31461013957806318160ddd1461017657806323b872dd146101a1575b600080fd5b34801561011a57600080fd5b506101236104a5565b6040516101309190611580565b60405180910390f35b34801561014557600080fd5b50610160600480360381019061015b919061163b565b610537565b60405161016d9190611696565b60405180910390f35b34801561018257600080fd5b5061018b61055a565b60405161019891906116c0565b60405180910390f35b3480156101ad57600080fd5b506101c860048036038101906101c391906116db565b610564565b6040516101d59190611696565b60405180910390f35b3480156101ea57600080fd5b506102056004803603810190610200919061172e565b610593565b6040516102129190611696565b60405180910390f35b34801561022757600080fd5b50610230610673565b60405161023d9190611777565b60405180910390f35b34801561025257600080fd5b5061026d6004803603810190610268919061163b565b61067c565b60405161027a9190611696565b60405180910390f35b34801561028f57600080fd5b506102aa60048036038101906102a5919061163b565b6106b3565b6040516102b79190611696565b60405180910390f35b3480156102cc57600080fd5b506102e760048036038101906102e29190611792565b61076b565b6040516102f491906116c0565b60405180910390f35b34801561030957600080fd5b506103126107b3565b005b34801561032057600080fd5b506103296107c7565b60405161033691906117ce565b60405180910390f35b34801561034b57600080fd5b506103546107f1565b6040516103619190611580565b60405180910390f35b34801561037657600080fd5b50610391600480360381019061038c919061163b565b610883565b60405161039e9190611696565b60405180910390f35b3480156103b357600080fd5b506103ce60048036038101906103c9919061163b565b61093b565b6040516103db9190611696565b60405180910390f35b6103ec6109b2565b6040516103f99190611696565b60405180910390f35b34801561040e57600080fd5b506104296004803603810190610424919061163b565b610a68565b6040516104369190611696565b60405180910390f35b34801561044b57600080fd5b50610466600480360381019061046191906117e9565b610aa2565b60405161047391906116c0565b60405180910390f35b34801561048857600080fd5b506104a3600480360381019061049e9190611792565b610b29565b005b6060600380546104b490611858565b80601f01602080910402602001604051908101604052809291908181526020018280546104e090611858565b801561052d5780601f106105025761010080835404028352916020019161052d565b820191906000526020600020905b81548152906001019060200180831161051057829003601f168201915b5050505050905090565b600080610542610bac565b905061054f818585610bb4565b600191505092915050565b6000600254905090565b60008061056f610bac565b905061057c858285610d7d565b610587858585610e09565b60019150509392505050565b600061059d61107f565b478211156105e0576040517f08c379a00000000000000000000000000000000000000000000000000000000081526004016105d7906118fb565b60405180910390fd5b60003373ffffffffffffffffffffffffffffffffffffffff16610601610673565b600a61060d9190611a7d565b846106189190611ac8565b60405161062490611b3b565b60006040518083038185875af1925050503d8060008114610661576040519150601f19603f3d011682016040523d82523d6000602084013e610666565b606091505b5050905080915050919050565b60006012905090565b600080610687610bac565b90506106a88185856106998589610aa2565b6106a39190611b50565b610bb4565b600191505092915050565b60006106bd61107f565b3073ffffffffffffffffffffffffffffffffffffffff168373ffffffffffffffffffffffffffffffffffffffff16141580156106fa575060008214155b610739576040517f08c379a000000000000000000000000000000000000000000000000000000000815260040161073090611bf6565b60405180910390fd5b61076183610745610673565b600a6107519190611a7d565b8461075c9190611ac8565b6110fd565b6001905092915050565b60008060008373ffffffffffffffffffffffffffffffffffffffff1673ffffffffffffffffffffffffffffffffffffffff168152602001908152602001600020549050919050565b6107bb61107f565b6107c56000611253565b565b6000600560009054906101000a900473ffffffffffffffffffffffffffffffffffffffff16905090565b60606004805461080090611858565b80601f016020809104026020016040519081016040528092919081815260200182805461082c90611858565b80156108795780601f1061084e57610100808354040283529160200191610879565b820191906000526020600020905b81548152906001019060200180831161085c57829003601f168201915b5050505050905090565b600061088d61107f565b3073ffffffffffffffffffffffffffffffffffffffff168373ffffffffffffffffffffffffffffffffffffffff16141580156108ca575060008214155b610909576040517f08c379a000000000000000000000000000000000000000000000000000000000815260040161090090611bf6565b60405180910390fd5b61093183610915610673565b600a6109219190611a7d565b8461092c9190611ac8565b611319565b6001905092915050565b600080610946610bac565b905060006109548286610aa2565b905083811015610999576040517f08c379a000000000000000000000000000000000000000000000000000000000815260040161099090611c88565b60405180910390fd5b6109a68286868403610bb4565b60019250505092915050565b6000346109bd610bac565b73ffffffffffffffffffffffffffffffffffffffff1631101580156109e3575060003414155b610a22576040517f08c379a0000000000000000000000000000000000000000000000000000000008152600401610a1990611cf4565b60405180910390fd5b6000670de0b6b3a76400006103e834610a3b9190611ac8565b610a459190611d43565b9050610a60610a526107c7565b610a5a610bac565b83610e09565b600191505090565b600080339050610a978185610a7b610673565b600a610a879190611a7d565b86610a929190611ac8565b610e09565b600191505092915050565b6000600160008473ffffffffffffffffffffffffffffffffffffffff1673ffffffffffffffffffffffffffffffffffffffff16815260200190815260200160002060008373ffffffffffffffffffffffffffffffffffffffff1673ffffffffffffffffffffffffffffffffffffffff16815260200190815260200160002054905092915050565b610b3161107f565b600073ffffffffffffffffffffffffffffffffffffffff168173ffffffffffffffffffffffffffffffffffffffff1603610ba0576040517f08c379a0000000000000000000000000000000000000000000000000000000008152600401610b9790611de6565b60405180910390fd5b610ba981611253565b50565b600033905090565b600073ffffffffffffffffffffffffffffffffffffffff168373ffffffffffffffffffffffffffffffffffffffff1603610c23576040517f08c379a0000000000000000000000000000000000000000000000000000000008152600401610c1a90611e78565b60405180910390fd5b600073ffffffffffffffffffffffffffffffffffffffff168273ffffffffffffffffffffffffffffffffffffffff1603610c92576040517f08c379a0000000000000000000000000000000000000000000000000000000008152600401610c8990611f0a565b60405180910390fd5b80600160008573ffffffffffffffffffffffffffffffffffffffff1673ffffffffffffffffffffffffffffffffffffffff16815260200190815260200160002060008473ffffffffffffffffffffffffffffffffffffffff1673ffffffffffffffffffffffffffffffffffffffff168152602001908152602001600020819055508173ffffffffffffffffffffffffffffffffffffffff168373ffffffffffffffffffffffffffffffffffffffff167f8c5be1e5ebec7d5bd14f71427d1e84f3dd0314c0f7b2291e5b200ac8c7c3b92583604051610d7091906116c0565b60405180910390a3505050565b6000610d898484610aa2565b90507fffffffffffffffffffffffffffffffffffffffffffffffffffffffffffffffff8114610e035781811015610df5576040517f08c379a0000000000000000000000000000000000000000000000000000000008152600401610dec90611f76565b60405180910390fd5b610e028484848403610bb4565b5b50505050565b600073ffffffffffffffffffffffffffffffffffffffff168373ffffffffffffffffffffffffffffffffffffffff1603610e78576040517f08c379a0000000000000000000000000000000000000000000000000000000008152600401610e6f90612008565b60405180910390fd5b600073ffffffffffffffffffffffffffffffffffffffff168273ffffffffffffffffffffffffffffffffffffffff1603610ee7576040517f08c379a0000000000000000000000000000000000000000000000000000000008152600401610ede9061209a565b60405180910390fd5b610ef28383836114e6565b60008060008573ffffffffffffffffffffffffffffffffffffffff1673ffffffffffffffffffffffffffffffffffffffff16815260200190815260200160002054905081811015610f78576040517f08c379a0000000000000000000000000000000000000000000000000000000008152600401610f6f9061212c565b60405180910390fd5b8181036000808673ffffffffffffffffffffffffffffffffffffffff1673ffffffffffffffffffffffffffffffffffffffff16815260200190815260200160002081905550816000808573ffffffffffffffffffffffffffffffffffffffff1673ffffffffffffffffffffffffffffffffffffffff168152602001908152602001600020600082825401925050819055508273ffffffffffffffffffffffffffffffffffffffff168473ffffffffffffffffffffffffffffffffffffffff167fddf252ad1be2c89b69c2b068fc378daa952ba7f163c4a11628f55a4df523b3ef8460405161106691906116c0565b60405180910390a36110798484846114eb565b50505050565b611087610bac565b73ffffffffffffffffffffffffffffffffffffffff166110a56107c7565b73ffffffffffffffffffffffffffffffffffffffff16146110fb576040517f08c379a00000000000000000000000000000000000000000000000000000000081526004016110f290612198565b60405180910390fd5b565b600073ffffffffffffffffffffffffffffffffffffffff168273ffffffffffffffffffffffffffffffffffffffff160361116c576040517f08c379a000000000000000000000000000000000000000000000000000000000815260040161116390612204565b60405180910390fd5b611178600083836114e6565b806002600082825461118a9190611b50565b92505081905550806000808473ffffffffffffffffffffffffffffffffffffffff1673ffffffffffffffffffffffffffffffffffffffff168152602001908152602001600020600082825401925050819055508173ffffffffffffffffffffffffffffffffffffffff16600073ffffffffffffffffffffffffffffffffffffffff167fddf252ad1be2c89b69c2b068fc378daa952ba7f163c4a11628f55a4df523b3ef8360405161123b91906116c0565b60405180910390a361124f600083836114eb565b5050565b6000600560009054906101000a900473ffffffffffffffffffffffffffffffffffffffff16905081600560006101000a81548173ffffffffffffffffffffffffffffffffffffffff021916908373ffffffffffffffffffffffffffffffffffffffff1602179055508173ffffffffffffffffffffffffffffffffffffffff168173ffffffffffffffffffffffffffffffffffffffff167f8be0079c531659141344cd1fd0a4f28419497f9722a3daafe3b4186f6b6457e060405160405180910390a35050565b600073ffffffffffffffffffffffffffffffffffffffff168273ffffffffffffffffffffffffffffffffffffffff1603611388576040517f08c379a000000000000000000000000000000000000000000000000000000000815260040161137f90612296565b60405180910390fd5b611394826000836114e6565b60008060008473ffffffffffffffffffffffffffffffffffffffff1673ffffffffffffffffffffffffffffffffffffffff1681526020019081526020016000205490508181101561141a576040517f08c379a000000000000000000000000000000000000000000000000000000000815260040161141190612328565b60405180910390fd5b8181036000808573ffffffffffffffffffffffffffffffffffffffff1673ffffffffffffffffffffffffffffffffffffffff1681526020019081526020016000208190555081600260008282540392505081905550600073ffffffffffffffffffffffffffffffffffffffff168373ffffffffffffffffffffffffffffffffffffffff167fddf252ad1be2c89b69c2b068fc378daa952ba7f163c4a11628f55a4df523b3ef846040516114cd91906116c0565b60405180910390a36114e1836000846114eb565b505050565b505050565b505050565b600081519050919050565b600082825260208201905092915050565b60005b8381101561152a57808201518184015260208101905061150f565b60008484015250505050565b6000601f19601f8301169050919050565b6000611552826114f0565b61155c81856114fb565b935061156c81856020860161150c565b61157581611536565b840191505092915050565b6000602082019050818103600083015261159a8184611547565b905092915050565b600080fd5b600073ffffffffffffffffffffffffffffffffffffffff82169050919050565b60006115d2826115a7565b9050919050565b6115e2816115c7565b81146115ed57600080fd5b50565b6000813590506115ff816115d9565b92915050565b6000819050919050565b61161881611605565b811461162357600080fd5b50565b6000813590506116358161160f565b92915050565b60008060408385031215611652576116516115a2565b5b6000611660858286016115f0565b925050602061167185828601611626565b9150509250929050565b60008115159050919050565b6116908161167b565b82525050565b60006020820190506116ab6000830184611687565b92915050565b6116ba81611605565b82525050565b60006020820190506116d560008301846116b1565b92915050565b6000806000606084860312156116f4576116f36115a2565b5b6000611702868287016115f0565b9350506020611713868287016115f0565b925050604061172486828701611626565b9150509250925092565b600060208284031215611744576117436115a2565b5b600061175284828501611626565b91505092915050565b600060ff82169050919050565b6117718161175b565b82525050565b600060208201905061178c6000830184611768565b92915050565b6000602082840312156117a8576117a76115a2565b5b60006117b6848285016115f0565b91505092915050565b6117c8816115c7565b82525050565b60006020820190506117e360008301846117bf565b92915050565b60008060408385031215611800576117ff6115a2565b5b600061180e858286016115f0565b925050602061181f858286016115f0565b9150509250929050565b7f4e487b7100000000000000000000000000000000000000000000000000000000600052602260045260246000fd5b6000600282049050600182168061187057607f821691505b60208210810361188357611882611829565b5b50919050565b7f49434f3a2066756e6374696f6e2077697468647261772068617320696e76616c60008201527f696420696e707574000000000000000000000000000000000000000000000000602082015250565b60006118e56028836114fb565b91506118f082611889565b604082019050919050565b60006020820190508181036000830152611914816118d8565b9050919050565b7f4e487b7100000000000000000000000000000000000000000000000000000000600052601160045260246000fd5b60008160011c9050919050565b6000808291508390505b60018511156119a15780860481111561197d5761197c61191b565b5b600185161561198c5780820291505b808102905061199a8561194a565b9450611961565b94509492505050565b6000826119ba5760019050611a76565b816119c85760009050611a76565b81600181146119de57600281146119e857611a17565b6001915050611a76565b60ff8411156119fa576119f961191b565b5b8360020a915084821115611a1157611a1061191b565b5b50611a76565b5060208310610133831016604e8410600b8410161715611a4c5782820a905083811115611a4757611a4661191b565b5b611a76565b611a598484846001611957565b92509050818404811115611a7057611a6f61191b565b5b81810290505b9392505050565b6000611a8882611605565b9150611a938361175b565b9250611ac07fffffffffffffffffffffffffffffffffffffffffffffffffffffffffffffffff84846119aa565b905092915050565b6000611ad382611605565b9150611ade83611605565b9250828202611aec81611605565b91508282048414831517611b0357611b0261191b565b5b5092915050565b600081905092915050565b50565b6000611b25600083611b0a565b9150611b3082611b15565b600082019050919050565b6000611b4682611b18565b9150819050919050565b6000611b5b82611605565b9150611b6683611605565b9250828201905080821115611b7e57611b7d61191b565b5b92915050565b7f496e76616c696420455243323020696e707574733a616464726573732c616d6f60008201527f756e740000000000000000000000000000000000000000000000000000000000602082015250565b6000611be06023836114fb565b9150611beb82611b84565b604082019050919050565b60006020820190508181036000830152611c0f81611bd3565b9050919050565b7f45524332303a2064656372656173656420616c6c6f77616e63652062656c6f7760008201527f207a65726f000000000000000000000000000000000000000000000000000000602082015250565b6000611c726025836114fb565b9150611c7d82611c16565b604082019050919050565b60006020820190508181036000830152611ca181611c65565b9050919050565b7f49434f3a2066756e6374696f6e2062757920696e76616c696420696e70757400600082015250565b6000611cde601f836114fb565b9150611ce982611ca8565b602082019050919050565b60006020820190508181036000830152611d0d81611cd1565b9050919050565b7f4e487b7100000000000000000000000000000000000000000000000000000000600052601260045260246000fd5b6000611d4e82611605565b9150611d5983611605565b925082611d6957611d68611d14565b5b828204905092915050565b7f4f776e61626c653a206e6577206f776e657220697320746865207a65726f206160008201527f6464726573730000000000000000000000000000000000000000000000000000602082015250565b6000611dd06026836114fb565b9150611ddb82611d74565b604082019050919050565b60006020820190508181036000830152611dff81611dc3565b9050919050565b7f45524332303a20617070726f76652066726f6d20746865207a65726f2061646460008201527f7265737300000000000000000000000000000000000000000000000000000000602082015250565b6000611e626024836114fb565b9150611e6d82611e06565b604082019050919050565b60006020820190508181036000830152611e9181611e55565b9050919050565b7f45524332303a20617070726f766520746f20746865207a65726f20616464726560008201527f7373000000000000000000000000000000000000000000000000000000000000602082015250565b6000611ef46022836114fb565b9150611eff82611e98565b604082019050919050565b60006020820190508181036000830152611f2381611ee7565b9050919050565b7f45524332303a20696e73756666696369656e7420616c6c6f77616e6365000000600082015250565b6000611f60601d836114fb565b9150611f6b82611f2a565b602082019050919050565b60006020820190508181036000830152611f8f81611f53565b9050919050565b7f45524332303a207472616e736665722066726f6d20746865207a65726f20616460008201527f6472657373000000000000000000000000000000000000000000000000000000602082015250565b6000611ff26025836114fb565b9150611ffd82611f96565b604082019050919050565b6000602082019050818103600083015261202181611fe5565b9050919050565b7f45524332303a207472616e7366657220746f20746865207a65726f206164647260008201527f6573730000000000000000000000000000000000000000000000000000000000602082015250565b60006120846023836114fb565b915061208f82612028565b604082019050919050565b600060208201905081810360008301526120b381612077565b9050919050565b7f45524332303a207472616e7366657220616d6f756e742065786365656473206260008201527f616c616e63650000000000000000000000000000000000000000000000000000602082015250565b60006121166026836114fb565b9150612121826120ba565b604082019050919050565b6000602082019050818103600083015261214581612109565b9050919050565b7f4f776e61626c653a2063616c6c6572206973206e6f7420746865206f776e6572600082015250565b60006121826020836114fb565b915061218d8261214c565b602082019050919050565b600060208201905081810360008301526121b181612175565b9050919050565b7f45524332303a206d696e7420746f20746865207a65726f206164647265737300600082015250565b60006121ee601f836114fb565b91506121f9826121b8565b602082019050919050565b6000602082019050818103600083015261221d816121e1565b9050919050565b7f45524332303a206275726e2066726f6d20746865207a65726f2061646472657360008201527f7300000000000000000000000000000000000000000000000000000000000000602082015250565b60006122806021836114fb565b915061228b82612224565b604082019050919050565b600060208201905081810360008301526122af81612273565b9050919050565b7f45524332303a206275726e20616d6f756e7420657863656564732062616c616e60008201527f6365000000000000000000000000000000000000000000000000000000000000602082015250565b60006123126022836114fb565b915061231d826122b6565b604082019050919050565b6000602082019050818103600083015261234181612305565b905091905056fea2646970667358221220daf15e1dee580b1eaa76110f58d2eed68805df55eb40b187e9d6d009cff4910e64736f6c63430008140033",
  "linkReferences": {},
  "deployedLinkReferences": {}
}